:020000041A00E0
:10000000008000104905001A7901001A7B01001ACE
:100010007D01001A7F01001A8101001A4673FF5307
:100020000000000000000000000000008301001A32
:100030008501001A000000008701001AC115001A8E
:10004000BB01001ABB01001ABB01001A000000002E
:10005000BB01001ABB01001ABB01001ABB01001A48
:10006000C519001ABB01001ABB01001ABB01001A16
:10007000BB01001ABB01001ABB01001ABB01001A28
:10008000BB01001ABB01001ABB01001ABB01001A18
:10009000BB01001ABB01001ABB01001ABB01001A08
:1000A000BB01001ABB01001ABB01001ABB01001AF8
:1000B000BB01001ABB01001ABB01001ABB01001AE8
:1000C000BB01001ABB01001ABB01001ABB01001AD8
:1000D000BB01001ABB01001ABB01001ABB01001AC8
:1000E000BB01001ABB01001ABB01001ABB01001AB8
:1000F00000000000BB01001ABB01001ABB01001A7E
:1001000000000000BB01001ABB01001ABB01001A6D
:10011000BB01001AB4C7001A0000001068020000FA
:10012000B4C7001A0000081000000000B4C7001A8D
:100130000000002000000000B4C7001A008000206A
:1001400000000000B4C7001A00C00020000000003A
:1001500068020010280000000000081000000000E5
:1001600000000020000000000080002000000000CF
:1001700000C0002000000000FEE7FEE7FEE7FEE70B
:10018000FEE7FEE7FEE7FEE7FEE7002393420AD222
:1001900010B450F8044B41F8044B04339342F8D3A5
:1001A0005DF8044B7047704700238B4204D2002255
:1001B00040F8042B0433F8E77047FEE7FFFFFFFF2A
:1001C000FFFFFFFFFFFFFFFFFFFFFFFFFFFFFFFF3F
:1001D000FFFFFFFFFFFFFFFFFFFFFFFFFFFFFFFF2F
:1001E000FFFFFFFFFFFFFFFFFFFFFFFFFFFFFFFF1F
:1001F000FFFFFFFFFFFFFFFFFFFFFFFFFFFFFFFF0F
:10020000FFFFFFFFFFFFFFFFFFFFFFFFFFFFFFFFFE
:10021000FFFFFFFFFFFFFFFFFFFFFFFFFFFFFFFFEE
:10022000FFFFFFFFFFFFFFFFFFFFFFFFFFFFFFFFDE
:10023000FFFFFFFFFFFFFFFFFFFFFFFFFFFFFFFFCE
:10024000FFFFFFFFFFFFFFFFFFFFFFFFFFFFFFFFBE
:10025000FFFFFFFFFFFFFFFFFFFFFFFFFFFFFFFFAE
:10026000FFFFFFFFFFFFFFFFFFFFFFFFFFFFFFFF9E
:10027000FFFFFFFFFFFFFFFFFFFFFFFFFFFFFFFF8E
:10028000FFFFFFFFFFFFFFFFFFFFFFFFFFFFFFFF7E
:10029000FFFFFFFFFFFFFFFFFFFFFFFFFFFFFFFF6E
:1002A000FFFFFFFFFFFFFFFFFFFFFFFFFFFFFFFF5E
:1002B000FFFFFFFFFFFFFFFFFFFFFFFFFFFFFFFF4E
:1002C000FFFFFFFFFFFFFFFFFFFFFFFFFFFFFFFF3E
:1002D000FFFFFFFFFFFFFFFFFFFFFFFFFFFFFFFF2E
:1002E000FFFFFFFFFFFFFFFFFFFFFFFFFFFFFFFF1E
:1002F000FFFFFFFFFFFFFFFFFFFFFFFFFFFFFFFF0E
:1003000010B40446B1F5807F36D00EDDB1F5806FB4
:1003100037D01FDDB1F5006F38D0B1F5805F3AD12D
:100320001F4B0FCB84E80F0011E020291AD008DD05
:1003300040291CD080292ED11A4B0FCB84E80F0006
:1003400005E0102927D1184B0FCB84E80F005DF88A
:10035000044B7047B1F5007F1DD1144B0FCB84E8DF
:100360000F00F4E7124B0FCB84E80F00EFE7114BBF
:100370000FCB84E80F00EAE70F4B0FCB84E80F00A8
:10038000E5E70E4B0FCB84E80F00E0E70C4B0FCBFB
:1003900084E80F00DBE7034B0FCB84E80F00D6E7C0
:1003A000B029001A6029001AC029001A7029001A01
:1003B000D029001A9029001A5029001A8029001A01
:1003C000A029001A2DE9F04385B000AF594B9C8954
:1003D00004F18002530092000732D2086946A1EB73
:1003E000C2029546E8460733DB08DB00ADEB030DA0
:1003F0006E46ADEB030DE9460AE0002229F8142011
:10040000630028F81320013328F813200134A4B224
:10041000484B9B897F33A342EFDA01F0E1FA4FF4B6
:10042000E121032001F028F8002001F0DFF8424824
:1004300000F0FEFF3F4B00229A8213E03D4B9D826D
:100440002C2001F0B4FA0134A4B23A4B9B89A342A8
:1004500020D93A4B1A68374BD989374B93FBF1F3C4
:100460009A42F6D30025354B1D60284601F01AF953
:1004700000B2A0F50070800100B229F814006300FA
:1004800028F81300013328F813502A4B9B8A012BBC
:10049000D9D1D3E7282001F08AFA264CA1898031EE
:1004A0003846FFF72DFF012300224146384601F070
:1004B00099FBA28980323146404601F0ADFEA38906
:1004C000803332461E49304601F0E6FE002301E04B
:1004D00001339BB2174A92897F329A4207DB36F981
:1004E0001320012AF4DD134A01219182F0E711491A
:1004F0008B6801338B601C22032001F008F8002474
:100500000DE06500022209EB0501032000F0FFFF6A
:1005100002227119032000F0FAFF0134A4B2054B46
:100520009B897F33A342ECDA002001F0BBF8002462
:100530008FE700BF0402001000CB280C041000E07D
:10054000000000107047FFFF10B572B6194B1A4A31
:100550001A600433194A1A60002305E0184A4FF064
:10056000FF3142F823100133072BF7D962B6154B40
:1005700007E003F10C049A6859681868FFF705FE54
:100580002346114A9342F4D306E01C46596854F8B6
:10059000080BFFF709FE23460C4A9342F5D300F0FF
:1005A0002BFF02F051F8FFF7CDFFFFF70BFF30BF35
:1005B000FDE700BF003105400010DF10FFF7DF014D
:1005C00080E200E01401001A5001001A7801001ABC
:1005D000704770470022052A19D870B40C4911F8E9
:1005E000125001EB42014C780A4B05F5006653F8B6
:1005F00026100120A040014343F8261003EB4513C9
:10060000002119550132052AE8D970BC704770479E
:10061000AC26001A00400F400023032B16D830B43C
:100620000B4911F8132001EB43014D78094C02F5F9
:10063000006254F822100120A84021EA000144F889
:1006400022100133032BEBD930BC7047704700BF39
:10065000A426001A00400F400023082B16D830B4FF
:100660000B4911F8132001EB43014D78094C02F5B9
:10067000006254F822100120A84021EA000144F849
:1006800022100133082BEBD930BC7047704700BFF4
:10069000B826001A00400F4010B582B0084C6946D9
:1006A000204600F007FA074A6946204600F06DFA36
:1006B00000226946204600F081FA02B010BD00BF5A
:1006C00000300E40801A060010B50B4C204600F09A
:1006D00077FE636823F004036360236823F0FF035D
:1006E00043F0070323600549204600F04AFE636893
:1006F00043F00203636010BD00500C40A08601006F
:1007000008B5002000F0A4F8044B40F60802C3F836
:10071000842C0349002000F0ADF808BD00600840BB
:1007200040420F0010B5074C204600F0D5F84FF4BA
:10073000E131204600F01AF90323E3600123E36569
:1007400010BD00BF00100C4008B5FFF7EBFF0948D3
:1007500000F0F6FDFFF780FFFFF79EFFFFF7B4FF05
:10076000FFF7CEFFFFF736FFFFF756FF00F052FA14
:1007700008BD00BF00400F4008B5FFF7D3FF08BD1C
:1007800000231C2B12D810B4094A02EB830112F883
:1007900023404A78488802EB4412064941F8220077
:1007A00001331C2BF0D95DF8044B7047704700BF34
:1007B000D426001A0060084010B5174AD2F820313C
:1007C00023F4704343F41043C2F82031D2F82431AB
:1007D00023F4704343F41043C2F8243101220F493B
:1007E000062000F001FD00244CB10B4B5A6822F0AA
:1007F0000C025A605A6842F003025A6010BD084861
:1008000000EB840101238A78497810F8240000F075
:100810002DFC0134E8E700BF0030044000CB280C79
:10082000D026001A08B5FFF7ABFFFFF7C5FF08BDDC
:10083000012909D1C0EBC0008200044B13441A699E
:10084000137DDBB2042BFBD0704700BF20020010E9
:1008500070B50546064EC400221A930033449888AA
:1008600000F068FC641BA300F3586C229A6170BD11
:10087000200200102DE9F0410C460B4EC5002B1A4A
:100880004FEA830806EB0803988800F087FCB0FB6A
:10089000F4F056F8083042081A6156F808301A6920
:1008A000801A5861BDE8F08120020010094B98427F
:1008B00009D003F58053984207D0A3F580239842CE
:1008C00005D00020704702207047032070470120A8
:1008D000704700BF00100C4030B583B00446FFF7EE
:1008E000E5FF01231A4619460E4D35F8100000F0B9
:1008F00003FC0723A3600023E3656360E3602362D6
:10090000E36463652365084B9C4206D00323E360E0
:100910001023A362019B03B030BD00232361A369B0
:100920000193F3E75027001A0020084038B5054628
:100930000C46FFF7BBFF0C4B33F8100000F02EFC09
:100940002301B0FBF3F3D9B2EA6842F08002EA6017
:100950002960C3F307226A60EA6822F08002EA6035
:10096000B0FBF3F0000938BD4827001A2DE9F04F1D
:1009700083B001908846FFF799FF324B33F810009F
:1009800000F00CFC06464FF0FF3701244FF0000B3F
:10099000A246D9462AE042424B1C17E00AB317464A
:1009A000AB46A24699460135AC421ED93309300701
:1009B000A4FB000104FB0311621908FB02F20023EF
:1009C00001F0C0FC02460B460028E4DB9742EAD364
:1009D000002BE8D0190CE6D1022BDFD8002DDDD09A
:1009E000E1E71746AB46A246994601341FB10F2CEA
:1009F00001D80025D8E7B9F1000F1ED0019A1146A1
:100A0000D36843F08003D3605FFA89F31360C9F3BE
:100A100007235360D36823F08003D3604FEA0A139F
:100A2000DBB20BF00F0213438B6233090AFB03F3B3
:100A3000DA4409FB0AF9B3FBF9F9484603B0BDE80B
:100A4000F08F00BF4827001A034B984201D00320C3
:100A500070470420704700BF00400E4070B50D463F
:100A600014461E46FFF7F0FF00F098FB55B104FB5B
:100A700006F404EB40006400B0FBF4F0C0B20138AF
:100A8000C0B270BD04EB840304EB4304F1E70368D8
:100A900023F0E06343EA016101607047043150F8DC
:100AA0002130002B04DAC3F389131380012070472F
:100AB0000020704738B505460C46FFF7C5FF0123F7
:100AC0001A46194600F018FB0021E960084A226026
:100AD000217161710B232846FFF7C0FF000240F42B
:100AE00000132079400400F460201843286038BDCA
:100AF000801A060008B54FF48072C26000220260BE
:100B0000FFF7A2FF00F030FB08BD08B5FFF7C6FFF6
:100B100008BD012A0AD01AB1022A0FD0002070475E
:100B2000006BC84000F00100C0B270470831C9B284
:100B3000006BC84000F00100C0B27047036B1B0C93
:100B400014BF012000207047012A06D0C36801228B
:100B50008A4023EA0203C360704710B4C4688A4025
:100B60001443C4605DF8044B704708B5012904D9EB
:100B700032B1036843F000630360FFF788FF08BDEC
:100B8000036823F000630360F7E770B505460E467F
:100B9000046824F46F2424F470640A600B79C3F1B0
:100BA0000B03DBB24979FFF759FF44EA00203379A0
:100BB0005B0403F4602303432B6070BD08B50A7126
:100BC0000A68FFF7E2FF08BD012A0AD0026822F096
:100BD000E0620260036801228A4023EA02030360A4
:100BE000704710B404688A40144304605DF8044BF5
:100BF000704738B504460D460021FFF748FF25B978
:100C0000236823F48033236038BD236843F48033A2
:100C10002360F9E708B5692000F0C0FA014B1860BD
:100C200008BD00BF88020010F0B40B6813F0800FFD
:100C300002D023F040030B60074601253AE04B69E0
:100C400003FB02F3B3FBF5F31CE01C46B0EB040C12
:100C500027D4674506D98D60771CCF600A618C6107
:100C6000CB6167460132B2F5807F1DDC0C6814F061
:100C7000400FE4D0731C02FA03FC4B6903FB0CF336
:100C8000B3FBF5F3DFF838C06345EBD9DFF834C0C8
:100C9000634509D814F0800FD7D1741C23FA04F4EB
:100CA000D4E7CCF1000CD4E70136032E01DC01229D
:100CB000D9E70135042D01DC0026F6E7F0BC7047CA
:100CC000FF5E4C0900D01213F0B599B005460C46F2
:100CD0005C22002101A801F0DBFC80230093636902
:100CE000059323798DF8043069462846FFF79CFF69
:100CF000069BAB4227D0EB1A2ED41E46109B23F046
:100D0000400310936369159323798DF8443010A93B
:100D10002846FFF789FF169BAB421FD0EB1A25D45C
:100D20001F462B4B9D4223D90E9BED1A33D4AE4266
:100D30003BDCBE4231DC6D460FCD0FC495E80F00A1
:100D400084E80F0006E06D460FCD0FC495E80F0054
:100D500084E80F0019B0F0BD5B42CEE710AD0FCDB7
:100D60000FC495E80F0084E80F00F3E75B42D7E774
:100D70004023089363690D9308A92846FFF754FFA1
:100D80000E9BAB42D0D108AD0FCD0FC495E80F003C
:100D900084E80F00DEE76D42C9E710AD0FCD0FC448
:100DA00095E80F0084E80F00D4E7AF4207DB08ADF9
:100DB0000FCD0FC495E80F0084E80F00CAE710AD0F
:100DC0000FCD0FC495E80F0084E80F00C2E700BF05
:100DD00080778E0630B4054600231C2000E00133E6
:100DE0001C2818D103EB430251000C4A0A44147921
:100DF000844210D003EB43014A0008498A5AAA42B0
:100E0000EDD803EB43025100044A0A445288AA4237
:100E1000E5D32046E4E730BC704700BF6427001AE2
:100E200082B04FF47A7301930D4A936923F0020163
:100E300092698A4201D00A4A916123F00303094A68
:100E40001168094A914201D943F00403044A9361AD
:100E5000019B5A1E0192002BFAD102B0704700BFCD
:100E600000000540CC26001AFF2C31011230054B42
:100E700053F8200010F0010F02D1C0F30460704756
:100E8000112070470000054000F11202034B53F897
:100E90002220034B185C00EA9200704700000540D6
:100EA0005C27001A08B510280AD8DFE800F0440BC8
:100EB0000D18210924272A2D09093034383C400017
:100EC00000203AE01E4838E01E4BD3F82C3103F0E6
:100ED0000703042B01D01C482FE000202DE0194B04
:100EE000D3F82C3103F00703042B27D0164824E055
:100EF000164B186821E0164B18681EE0154B186851
:100F00001BE0144B586818E000F068F815E0002169
:100F100000F09AF811E0012100F096F80DE00221AE
:100F200000F092F809E0032100F08EF805E00421BA
:100F300000F08AF801E04FF4004008BD0648FCE7E5
:100F4000001BB7000030044040787D01A026001A45
:100F5000CC26001A6802001080F0FA0238B5054667
:100F60000C460879FFF79EFF6061194B2B44194A24
:100F7000934221D818B3802323600023A360E36049
:100F8000B5FBF0F32361144A954203D903FB00F04B
:100F9000A84207D021462846FFF796FEA3688BB1EA
:100FA000013BA360236983B1E2680AB1013AE260C0
:100FB000013B2361002038BD4FF0FF30FBE74FF0CD
:100FC000FF30F8E74FF0FF30F5E74FF0FF30F2E782
:100FD000103A6BFF1005940BFF5E4C0930B583B0DF
:100FE000174D6C6CC4F30360FFF75CFF154B1B6877
:100FF00001932B6C13F0010F20D0C4F30743C4F30B
:101000000132C4F30121C4F38015013301320DF123
:10101000080C614411F8041C14F0800F08D13DB98C
:101020004900B3FBF1F3B0FBF2F000FB03F003E087
:10103000B0FBF2F003FB00F003B030BD0020FBE793
:10104000000005405827001A38B50C460846FFF73F
:101050000DFF05462046FFF717FF04462846FFF719
:1010600021FF0134B0FBF4F038BDFFFF30B400F1D4
:101070001604A40004F1804404F5A02464681B282D
:1010800013D811291AD00E4D25400AB145F4006538
:101090000BB145F0010545EA01651630800000F10D
:1010A000804000F5A020456008E044F001041630BF
:1010B000800000F1804000F5A020446030BC704703
:1010C000FEF7FFE01B280CD81630800000F18040AE
:1010D00000F5A020406810F0010F04D1C0F30460B7
:1010E0007047112070471120704708B5FFF7EAFFDD
:1010F000FFF7D8FE08BDFFFF71B901210AB141F029
:101100000401022B0AD0B0F5A17F0AD3A0F591709B
:10111000064B43F8301070470321EFE741F0200100
:10112000F1E72030024B43F83010704700200540B3
:1011300000100540B0F5A17F09D3094AA0F59170D0
:1011400052F8303043F0010342F830307047054A1E
:10115000203052F8303043F0010342F8303070470D
:101160000020054000100540B0F5A17F09D3094AD1
:10117000A0F5917052F8303023F0010342F830307E
:101180007047054A203052F8303023F0010342F80E
:1011900030307047002005400010054010B5B0F514
:1011A000A17F09D3A0F591730D4A52F8334014F092
:1011B000010F07D1002010BD00F12003094A52F8A9
:1011C0003340F4E7FFF706FEFFF78FFF14F0E00F60
:1011D00003D10123B0FBF3F0EDE70223FAE700BFF0
:1011E000002005400010054070B58AB005460E4647
:1011F00014464CF250330993062818D000230122DC
:1012000029460420FFF732FF4A4A536C43F001039A
:1012100053648DF8085001A93046FFF79FFE464BF6
:101220009E4216D9019B13F0400F03D0FEE7FFF753
:10123000F7FDE3E713F0800F05D023F0800301935F
:101240000025012607E0049B0133049301250026B5
:1012500001E000252E469DF80820019B43EA026329
:10126000059A43EA0243039A43EA0233049A43EAA3
:10127000022343F400632F4A53642E4B1B6C13F07C
:10128000010FFAD00023012209210420FFF7EEFE0E
:1012900006B34CF250330993099B5A1E0992002B56
:1012A000FAD1019B43F0800301939DF8082043EAA3
:1012B0000263059A43EA0243039A43EA0233049A1B
:1012C00043EA022343F400631A4A5364002C2ED1EC
:1012D0000AB070BD002DF9D04CF250330993099B30
:1012E0005A1E0992002BFAD1049B5A1E04929DF8B3
:1012F0000810019B43EA0163059943EA01430399FE
:1013000043EA013343EA022343F40063094A536486
:10131000DCE70A4800EB8401CB788A78497810F83A
:101320002400FFF7A3FE0134112CF2D9D0E70024EA
:10133000FAE700BF0000054080778E06D027001A2C
:101340007047FFFF034B984201D083207047A520D0
:10135000704700BF00500C40044B984202D040F24E
:10136000022070474FF4F170704700BF00500C40EE
:10137000036823F47F43090289B2194301600261C3
:10138000704770B506460D46FFF7E6FFFFF706FF0C
:1013900002224FF0FF33002100E02146AB420BD97F
:1013A0004C1C02FB04F3B0FBF3F39D42F6D2FF2C7E
:1013B000F3D902320021F1E73046FFF7D9FF70BDC3
:1013C00010B50446FFF7BEFFFFF7B4FE2046FFF757
:1013D000C3FFFFF7AFFE636823F004036360236875
:1013E00023F0FF0343F00703236002492046FFF781
:1013F000C8FF10BDA086010008B50B4A0B4B9A60D0
:1014000003F50C731B6903F47F63202B04D0FFF7F3
:1014100009FAFFF799F908BD044AD2F8883043F475
:101420007003C2F88830F2E70000001A00ED00E017
:10143000044B1860044A136843F001031360012051
:10144000704700BF58020010001000E000EB4000A1
:101450008300034AD358586900F02000704700BF4A
:101460001828001A00EB40008300024AD358196084
:10147000704700BF1828001A2DE9F84380468946B6
:10148000194C45002A189300E618E7583846FFF72C
:1014900023FA49463846FFF749FA0723BB603B6801
:1014A0000123FB6530797379B27942F018020F4954
:1014B00003EB401341F82320F079337A727A42F03B
:1014C000D00203EB401341F82320B8F1010F01D003
:1014D000BDE8F883064AD36C43F03003D3641A2284
:1014E000C1F80823F4E700BF1828001A006008407C
:1014F0000010084038B504460D462046FFF7A6FF09
:101500000028FAD029462046FFF7ACFF38BDF8B5D1
:1015100007460E4615460024AC4205D2315D3846DA
:10152000FFF7E8FF0134F7E7F8BDFFFF18B1044B00
:1015300007221A607047024B00221A60704700BFF2
:1015400010E000E038B550EA01042AD010F1FF3273
:1015500041F1FF33002B08BF322A27D2144BC3E9D5
:101560000001144B1B68A3FB004503FB01554FF41E
:101570007A7200232046294600F0E4FE0138B0F1DB
:10158000807F09D20C4B58600C4AE02182F823106E
:1015900000229A6007221A600120FFF7C7FF01208E
:1015A00038BD0020FFF7C2FF0020F9E70020F7E771
:1015B000600200108802001010E000E000ED00E082
:1015C00008B5074A13685168013341F100011360FF
:1015D0005160044B1B6813B1034A1068984708BD5B
:1015E00078020010800200107002001030B583B045
:1015F00018B101284AD003B030BD264B6D4693E8A0
:10160000030085E80300244C29462046FFF752FAE0
:1016100000212046FFF7EDFA204A29462046FFF731
:10162000B4FA002201212046FFF7CEFA0022012160
:101630002046FFF789FA002202212046FFF7C4FA6C
:10164000002202212046FFF77FFA002203212046D4
:10165000FFF7BAFA002203212046FFF775FA0022AD
:1016600004212046FFF7B0FA002204212046FFF7AC
:101670006BFA0B4AD2F8883C43F01003C2F8883C5E
:10168000002205212046FFF75FFAB4E70248FFF782
:1016900031FAB0E76028001A00300E40400D030018
:1016A0000060084070B582B00130C4B20026ADF8C9
:1016B0000660114D012221462846FFF785FA324681
:1016C00001212846FFF751FA002221460A48FFF778
:1016D00020FA0128F8D1084D0DF1060221462846CE
:1016E000FFF713FA002221462846FFF76DFABDF8EE
:1016F000060002B070BD00BF00300E4030B40B4D8C
:1017000000EB80002C182856087094F90110117015
:1017100094F902201A7094F90320029B1A7094F92C
:101720000420039B1A7030BC704700BF6828001A61
:1017300010F1020F00F0C780B0F1FF3F00F0C5804C
:1017400070B584B00C4600238DF80F308DF80E3044
:101750008DF80D308DF80C308DF80B300DF10B033A
:10176000019303AB00930DF10D030DF10E020DF18A
:101770000F01FFF7C3FF052C00F2A980DFE804F09A
:101780000981274563035348FFF7DAFD012004B0C0
:1017900070BD9DF80F109DF80E309DF80D2042F0A1
:1017A000D00203EB41134C4941F823209DF80C3043
:1017B0009DF90B20012000FA02F1464C03F500636D
:1017C00054F8232022EA010244F82320DFE79DF8A1
:1017D0000F109DF80E309DF80D2042F0C00203EB73
:1017E00041133D4941F823209DF80C309DF90B2011
:1017F000012000FA02F1374C03F5006354F823206E
:1018000022EA010244F82320C1E79DF80F109DF859
:101810000E309DF80D2042F0D80203EB41132E4903
:1018200041F823209DF80C309DF90B20012000FA8F
:1018300002F1284C03F5006354F8232022EA010248
:1018400044F82320A3E79DF80F109DF80E309DF873
:101850000D2042F0C80203EB41131F4941F8232039
:101860009DF80C309DF90B20012000FA02F1194C73
:1018700003F5006354F8232022EA010244F82320F0
:1018800085E79DF80F109DF80E309DF80D2042F071
:10189000D00203EB4113104941F823209DF80C407E
:1018A0009DF90B20012000FA02F10A4B04F50065B6
:1018B00053F82560314343F82510D2B203EB4413AB
:1018C0000021995463E700207047002070470020F2
:1018D0005DE700BF00400F400060084010F1020FBC
:1018E0002DD0B0F1FF3F2CD010B584B00C460023B2
:1018F0008DF80F308DF80E308DF80D308DF80C30DE
:101900008DF80B300DF10B03019303AB00930DF138
:101910000D030DF10E020DF10F01FFF7EFFE9DF823
:101920000C309DF80B20211C18BF01215B0103F135
:10193000402303F570239954012004B010BD00200A
:1019400070470020704710F1020F2CD0B0F1FF3F1C
:101950002BD000B585B000238DF80F308DF80E30F8
:101960008DF80D308DF80C308DF80B300DF10B0328
:10197000019303AB00930DF10D030DF10E020DF178
:101980000F01FFF7BBFE9DF90C309DF80B205B01AA
:1019900003F1402303F57023985C003018BF012049
:1019A00005B05DF804FB012070470020704710B5BA
:1019B0000446FFF7C8FFB0FA80F149092046FFF757
:1019C0008DFF10BD08B5044B1B681B68DB68034A1C
:1019D0001068984708BD00BF8C02001084020010F8
:1019E00008B5FFF717F91A4B1868FFF721FD01201A
:1019F0000021FFF7A7FD05210020FFF799FE002138
:101A00002420FFF795FE00212520FFF791FE0021FD
:101A10002620FFF78DFE00212720FFF789FE0121F8
:101A20002820FFF785FE01212920FFF781FE0121F3
:101A30002A20FFF77DFE01212B20FFF779FE0121EF
:101A40002C20FFF775FE01212D20FFF771FE08BD48
:101A5000880200102DE9F04F4D0881B000EB4107DE
:101A600016464DD004468646BC46914628464FF061
:101A7000000859F8042BDEF8003093FA28FADCF855
:101A8000001091FA28F1DAFA11FB9AFA21F14EF8D6
:101A9000041B22FB0BF142FB1BF2130C1B0443EA59
:101AA000114301384CF8043BE3D129460223324666
:101AB000204600F055F9022329463246384600F008
:101AC0004FF904EBC505A31C33F9027CB4F902609D
:101AD000B4F90400B4F906207F00760040005200FB
:101AE00023F8027C083424F8066C24F8040C24F84B
:101AF000022CA54203F10803E6D101B0BDE8F08F46
:101B00002946022300F02CF93246294638460223A2
:101B100001B0BDE8F04F00F023B900BF2DE9F04F50
:101B20004D0881B000EB410716464DD0044686466D
:101B3000BC46914628464FF0000859F8042BDEF8C1
:101B4000003093FA28FADCF8001091FA28F1DAFA5A
:101B500011FB9AFA21F14EF8041B42FB0BF122FB18
:101B60001BF2130C1B0443EA114301384CF8043BED
:101B7000E3D1294602233246204600F01FFA022311
:101B800029463246384600F019FA04EBC505A31C75
:101B900033F9027CB4F90260B4F90400B4F9062008
:101BA0007F0076004000520023F8027C083424F8BD
:101BB000066C24F8040C24F8022CA54203F1080357
:101BC000E6D101B0BDE8F08F2946022300F0F6F916
:101BD000324629463846022301B0BDE8F04F00F0F6
:101BE000EDB900BF70B5012A0D4604461E460188B6
:101BF00024D0B1F5807F13D008D8202931D045D921
:101C000040290DD080292CD08EB970BDB1F5806FE0
:101C100006D023D9B1F5006F23D0B1F5805FF3D1A1
:101C200001236268284600F09BF8002EEDD028467C
:101C3000A268A189BDE8704000F067B8B1F5807F67
:101C40001ED013D8202904D027D9402918D08029A4
:101C5000DAD162682846FFF761FFD5E7B1F5007F6A
:101C6000D2D162682846FFF7F5FECDE7B1F5806F67
:101C700006D00ED9B1F5006FEBD0B1F5805FC3D1BE
:101C800001236268284600F099F9BDE71029BBD10D
:101C9000C6E7B1F5007FDCD0B6E71029B4D1EFE795
:101CA0004B1C012B98BF70472DE9F003911C9B083A
:101CB000B1F80480B1F802900A8831F802CC80446F
:101CC000814402448444D9F80070D8F80060156853
:101CD000DCF80040C9F80060C8F80070CCF800508B
:101CE0001460D9F80470D8F804605568DCF8044032
:101CF000C9F80460C8F80470CCF804505460083186
:101D0000013BD5D1BDE8F00370474B1C012B98BFB8
:101D100070472DE9F003911C9B08B1F80480B1F8DD
:101D200002900A8831F802CC00EB580800EB590900
:101D300000EB520200EB5C0CD9F80070D8F80060A0
:101D40001568DCF80040C9F80060C8F80070CCF8ED
:101D5000005014600831013BDFD1BDE8F00370474B
:101D60002DE9F04F8FB09B46019189080E460D91E9
:101D7000890007460C900BEB4B03084400244518E0
:101D80009B0096460992B246294402932646224673
:101D9000CDF800B03B6893FA22FC9CFA22FC2B6839
:101DA00093FA22F393FA22F39CFA13F8DCFA13FC69
:101DB000036893FA22F393FA22F90B6893FA22F359
:101DC00093FA22F399FA13F398FA23F947F8049B4C
:101DD000D8FA13F35EF8369029FB03FB49FB13F99D
:101DE000036893FA22F393FA22F84FEA19494FEA6B
:101DF000094949EA1B4340F8043B0B6893FA22F374
:101E000093FA22F3D8FA13F3ACFA13F9ECFA13FCB1
:101E10005EF8263023FB0CF843FB1CF31B0C1B0461
:101E200043EA184345F8043B5EF8043023FB09FC01
:101E300043FB19F31B0C1B0443EA1C4341F8043B0E
:101E4000009B1E44029BBAF1010A1C44A2D1DDF89A
:101E500000B04FEA8B0306930D9B042B40F2818068
:101E6000CDF808A00A939A464FEA9A030022114639
:101E70000B9304925A1E9B0008930C9B07920591AA
:101E80004FEA8A0703930899039A099E5018059A06
:101E900002EB420356F822C056F82390069B56F8F0
:101EA0003280D3180593049A019B0D189342B646CD
:101EB00001EB0504039E41D90AEB020E33682A6840
:101EC00093FA12FBD3FA12F300930268216892FA94
:101ED00011F29BFA22F3029993FA21F131603E4408
:101EE000DBFA22F228FB02F148FB12F2120C120478
:101EF00042EA11420168026022683844D1FA12F2C3
:101F0000009BA3FA22F1E3FA22F32CFB03FB4CFB28
:101F100013F31B0C1B0443EA1B432B603D4429FBBA
:101F200001F349FB11F1090C0904019A41EA13413B
:101F300073469A422160D6443C44BFD8039A049B1E
:101F400004320392079A0133934204939BD90A9B6C
:101F5000069ADDF82CA09B089200042B0A930692A7
:101F600082D80C9C0D9E103454F8103C54F8087C18
:101F700093FA17F154F80C2C54F8040C92FA10F55B
:101F800091FA25F544F8105C92FA10F5D1FA25F192
:101F900044F80C1CD3FA17F3D2FA10F2E3FA22F148
:101FA00044F8081CA3FA22F3013E44F8043C04F16F
:101FB0001004D9D10FB0BDE8F08F00BF2DE9F04F6C
:101FC0008FB09B46019189080E460D918900074606
:101FD0000C900BEB4B030844002445189B009646DD
:101FE0000992B2462944029326462246CDF800B013
:101FF0003B6893FA22FC9CFA22FC2B6893FA22F3AA
:1020000093FA22F39CFA13F8DCFA13FC036893FAB0
:1020100022F393FA22F90B6893FA22F393FA22F34C
:1020200099FA13F398FA23F947F8049BD8FA13F3B3
:102030005EF8369049FB03FB29FB13F9036893FA1A
:1020400022F393FA22F84FEA19494FEA094949EA7B
:102050001B4340F8043B0B6893FA22F393FA22F3F4
:10206000D8FA13F3ECFA13F9ACFA13FC5EF8263045
:1020700043FB0CF823FB1CF31B0C1B0443EA184323
:1020800045F8043B5EF8043043FB09FC23FB19F3DD
:102090001B0C1B0443EA1C4341F8043B009B1E44F9
:1020A000029BBAF1010A1C44A2D1DDF800B04FEA4C
:1020B0008B0306930D9B042B40F28180CDF808A082
:1020C0000A939A464FEA9A03002211460B93049210
:1020D0005A1E9B0008930C9B079205914FEA8A07B2
:1020E00003930899039A099E5018059A02EB42033C
:1020F00056F822C056F82390069B56F83280D31823
:102100000593049A019B0D189342B64601EB050412
:10211000039E41D90AEB020E33682A6893FA12FB38
:10212000D3FA12F300930268216892FA11F29BFA33
:1021300022F3029993FA21F131603E44DBFA22F254
:1021400048FB02F128FB12F2120C120442EA11427F
:102150000168026022683844D1FA12F2009BE3FA67
:1021600022F1A3FA22F34CFB03FB2CFB13F31B0C11
:102170001B0443EA1B432B603D4449FB01F329FB4D
:1021800011F1090C0904019A41EA134173469A427C
:102190002160D6443C44BFD8039A049B0432039286
:1021A000079A0133934204939BD90A9B069ADDF860
:1021B0002CA09B089200042B0A93069282D80C9CB8
:1021C0000D9E103454F8103C54F8087C93FA17F123
:1021D00054F80C2C54F8040C92FA10F591FA25F5E9
:1021E00044F8105C92FA10F5D1FA25F144F80C1C71
:1021F000D3FA17F3D2FA10F2A3FA22F144F8081C2A
:10220000E3FA22F3013E44F8043C04F11004D9D16E
:102210000FB0BDE8F08F00BF2DE9F0415FEA920EEC
:102220002CD000F1100601F10805774656F8103C55
:1022300023FB03F856F80C3C23FB03FC56F8083C40
:1022400023FB03F456F8043C23FB03F34FEA6848EE
:102250004FEA6C4C64145B14013F25F8088C25F898
:1022600006CC25F8044C25F8023C06F1100605F1D1
:102270000805DBD100EB0E1001EBCE0112F00302DA
:1022800008D050F8043B23FB03F35B14013A21F818
:10229000023BF6D1BDE8F0812DE9F04F5FEA9309EA
:1022A0003BD000F1080C01F1080E02F10807C84606
:1022B0005CF8084C5EF808AC5CF8046C5EF804BC92
:1022C0001AFB04F51AFB34FA1BFB06F4ED13E413B6
:1022D00005F30F0504F30F04ADB21BFB36F6A4B2F1
:1022E0004FEAEA3AF6130AF30F0A06F30F0645EA35
:1022F0000A4544EA0644B8F1010847F8085C47F883
:10230000044C0CF1080C0EF1080E07F10807CFD1B0
:102310004FEAC909484449444A4413F003030ED024
:10232000023A30F9024B31F9025B013B04FB05F440
:102330004FEAE43404F30F0422F8024FF1D1BDE870
:10234000F08F00BF53B94AB9002908BF00281CBF4D
:102350004FF0FF314FF0FF3000F074B9ADF1080CD1
:102360006DE904CE00F006F8DDF804E0DDE90223B3
:1023700004B070472DE9F047089E04468846002BBC
:1023800040F085808A42154648D9B2FA82F24AB1B5
:10239000C2F1200701FA02F320FA07F7954047EA55
:1023A000030894404FEA154E230CB8FBFEF71FFAC2
:1023B00085FC0EFB178843EA084307FB0CF19942A2
:1023C00009D9EB1807F1FF3080F0E380994240F221
:1023D000E080023F2B445B1AA4B2B3FBFEF00EFB7D
:1023E000103344EA034400FB0CFCA44509D92C1922
:1023F00000F1FF3380F0CB80A44540F2C880023862
:102400002C4440EA0740A4EB0C0400271EB1D44042
:102410000023C6E900433946BDE8F087002A53D0BF
:10242000B2FA82F2002A40F0B680491B4FEA154EFC
:102430001FFA85F80127B1FBFEFC230C0EFB1C11D3
:1024400043EA014308FB0CF1994207D9EB180CF160
:10245000FF3002D2994200F2EC808446591AA3B2AE
:10246000B1FBFEF00EFB101443EA044408FB00F835
:10247000A04507D92C1900F1FF3302D2A04500F284
:10248000DC801846A4EB080440EA0C40BEE78B420F
:1024900008D9002E78D00027C6E900013846394611
:1024A000BDE8F087B3FA83F77FB98B4202D382424B
:1024B00000F2BD80841A61EB030301209846002ED0
:1024C000A9D0C6E90048A6E7FFDEC7F12005BB405A
:1024D00022FA05FC4CEA030C01FA07F420FA05F88D
:1024E00021FA05F34FEA1C4E48EA0404B3FBFEF957
:1024F000210C0EFB19331FFA8CF841EA034309FB48
:1025000008FA9A4502FA07F200FA07F10BD91CEB18
:10251000030309F1FF3080F088809A4540F28580FE
:10252000A9F102096344A3EB0A03A4B2B3FBFEF0D2
:102530000EFB103344EA034400FB08F8A04508D919
:102540001CEB040400F1FF336BD2A04569D90238BB
:10255000644440EA0940A4EB0804A0FB02894C450E
:10256000C6464B4654D351D0002E69D0B1EB0E0273
:1025700064EB030404FA05F522FA07F3FC401D435B
:10258000C6E90054002746E73746304643E7184679
:1025900037E707461FE7C2F1200320FA03F795400B
:1025A00001FA02F021FA03F34FEA154E3843010C09
:1025B000B3FBFEF71FFA85F80EFB173341EA034120
:1025C00007FB08F38B4204FA02F407D9691807F1F4
:1025D000FF3C28D28B4226D9023F2944CB1A81B234
:1025E000B3FBFEF00EFB103341EA034100FB08F39E
:1025F0008B4207D9691800F1FF3C10D28B420ED9EB
:1026000002382944C91A40EA074714E74145ABD2CA
:10261000B8EB020E69EB0C0201381346A4E76046E2
:10262000F0E7184695E76746D8E781467BE73846E6
:1026300045E7ACF1020C2B4410E702382C4421E7AB
:102640003746E8E6704700BF70B50D4D0D4C641B72
:10265000A4100026A64209D10B4D0C4CFDF7B9FF82
:10266000641BA4100026A64205D170BD55F8043B9A
:1026700098470136EEE755F8043B98470136F2E7F4
:10268000A8C7001AA8C7001AA8C7001AACC7001A22
:1026900002440346934200D1704703F8011BF9E757
:1026A0000000000000040008000901090500050100
:1026B0000502000E010B010C030003030304050FC8
:1026C00005100305030603070208FFFF001BB70000
:1026D000010F010102004400020144000202440013
:1026E000020A4000020B4000020C400001005000B2
:1026F0000101500001025000010650000601500087
:102700000604500006055000060754000608540051
:1027100006095000060A5000060B5000060C500037
:102720000F04F0000103D5000104D50007011600D5
:10273000070256000203520002045200090552002B
:102740000906570006025700C201A2018201620178
:1027500081008200A100A20001020408030F0F0FF4
:10276000FF000000000005000A002000240009000E
:102770004000400005006000A6000400C000C30047
:102780000200E000E0000100000100010300200160
:1027900020010600400140010C00420142011900E5
:1027A000620162011300820182011200A201A201F2
:1027B0001100C201C2011000E201E2010F00020299
:1027C00002020E00220222020D00230223021C003C
:1027D00000010100090901000A09010001070101C6
:1027E00002090100060901000C0901010D0901009F
:1027F0000E0901000F090100100901001109010073
:10280000120901001309010014110100191101003E
:102810001A1101001B1101000010084006040206F5
:1028200005021800001008400905070906071800EE
:1028300000200840000000000000190000100C40BB
:102840000701060702061A0000100C40010F0101E3
:1028500010011A0000200C400203020204021B00B7
:10286000801A06000A0000000401000201070500AA
:10287000030D010500010804020002020403000226
:10288000030400000200070400030C03020405090E
:1028900003010405080203040503020404050406F9
:1028A0000C000208060B00030706090003050607D3
:1028B00004050F06040003030404000204040500D9
:1028C00002050406000206040804050C040A0405B7
:1028D0000E010300000A011400000F011200000D98
:1028E000011100000C0110000003070700030F0096
:1028F000010000010000000000060A0003060608AF
:102900000405100605000304060100030004090481
:10291000050D010400000B010F0000020100000082
:10292000040101000008010200000901060001097C
:10293000020004050002010405010202040502026E
:102940000A00000E020B00010B020C00010CFFFF3D
:1029500000010000D0B6001A58C5001AF0000000AF
:1029600080000000A8C3001AE029001A70000000CF
:1029700000020000D0B9001AD0BF001AE001000028
:10298000000400008061001AC059001AE003000032
:1029900040000000109E001A38C7001A38000000DE
:1029A00000080000D09E001AC02A001AC0070000CC
:1029B00000100000E06D001A403A001AC00F00003D
:1029C00010000000E09D001A90C3001A0C000000E7
:1029D00020000000806D001A28C5001A18000000B1
:1029E0000800000210000001180000032000800011
:1029F0002800800230008001380080034800400237
:102A000050004001580040036000C0006800C00250
:102A10007000C0017800C0038800200290002001EF
:102A200098002003A800A002B000A001B800A003F5
:102A3000C8006002D0006001D8006003E800E00236
:102A4000F000E001F800E003080110021801100393
:102A50002801900230019001380190034801500292
:102A6000580150036801D0027001D0017801D003F1
:102A70008801300298013003A801B002B801B00308
:102A8000C8017002D8017003E801F002F801F003F8
:102A900018020803280288023802880358024803F3
:102AA0006802C8027802C80398022803B802A80383
:102AB000D8026803F802E803380398037803D803C0
:102AC000080000201000001018000030200000084E
:102AD00028000028300000183800003840000004AA
:102AE0004800002450000014580000346000000C1E
:102AF0006800002C7000001C7800003C8000000280
:102B0000880000229000001298000032A000000A05
:102B1000A800002AB000001AB800003AC000000661
:102B2000C8000026D0000016D8000036E000000ED5
:102B3000E800002EF000001EF800003E0801002111
:102B4000100100111801003120010009280100299D
:102B50003001001938010039400100054801002505
:102B600050010015580100356001000D6801002D6D
:102B70007001001D7801003D8001000388010023E1
:102B80009001001398010033A001000BA801002B55
:102B9000B001001BB801003BC0010007C8010027BD
:102BA000D0010017D8010037E001000FE801002F25
:102BB000F001001FF801003F080280201002801081
:102BC00018028030200280082802802830028018F5
:102BD0003802803840028004480280245002801469
:102BE000580280346002800C6802802C7002801CC5
:102BF0007802803C88028022900280129802803203
:102C0000A002800AA802802AB002801AB802803A84
:102C1000C0028006C8028026D0028016D802803604
:102C2000E002800EE802802EF002801EF802803E54
:102C300008038021100380111803803120038009CC
:102C40002803802930038019380380394003800528
:102C50004803802550038015580380356003800D9C
:102C60006803802D7003801D7803803D88038023D6
:102C70009003801398038033A003800BA803802B5C
:102C8000B003801BB803803BC0038007C8038027C4
:102C9000D0038017D8038037E003800FE803802F2C
:102CA000F003801FF803803F080440201004401008
:102CB00018044030200440082804402830044018FC
:102CC0003804403848044024500440145804403428
:102CD0006004400C6804402C7004401C7804403CA4
:102CE000880440229004401298044032A004400A14
:102CF000A804402AB004401AB804403AC004400670
:102D0000C8044026D0044016D8044036E004400EE3
:102D1000E804402EF004401EF804403E080540211F
:102D200010054011180540312005400928054029AB
:102D300030054019380540394805402550054015F3
:102D4000580540356005400D6805402D7005401D53
:102D50007805403D88054023900540139805403391
:102D6000A005400BA805402BB005401BB805403B13
:102D7000C0054007C8054027D0054017D805403793
:102D8000E005400FE805402FF005401FF805403FE3
:102D90000806C0201006C0101806C0302006C00863
:102DA0002806C0283006C0183806C0384806C02497
:102DB0005006C0145806C0346006C00C6806C02C0B
:102DC0007006C01C7806C03C8806C0229006C0125F
:102DD0009806C032A006C00AA806C02AB006C01ACB
:102DE000B806C03AC806C026D006C016D806C036F7
:102DF000E006C00EE806C02EF006C01EF806C03E73
:102E00000807C0211007C0111807C0312007C009EA
:102E10002807C0293007C0193807C0394807C0251E
:102E20005007C0155807C0356007C00D6807C02D92
:102E30007007C01D7807C03D8807C0239007C013E6
:102E40009807C033A007C00BA807C02BB007C01B52
:102E5000B807C03BC807C027D007C017D807C0377E
:102E6000E007C00FE807C02FF007C01FF807C03FFA
:102E700008082020100820101808203028082028D2
:102E8000300820183808203848082024500820141A
:102E9000580820346008200C6808202C7008201C7A
:102EA0007808203C880820229008201298082032B8
:102EB000A008200AA808202AB008201AB808203A3A
:102EC000C8082026D0082016D8082036E008200E92
:102ED000E808202EF008201EF808203E08092021CE
:102EE000100920111809203128092029300920193A
:102EF000380920394809202550092015580920355E
:102F00006009200D6809202D7009201D7809203DD9
:102F1000880920239009201398092033A009200B49
:102F2000A809202BB009201BB809203BC80920277D
:102F3000D0092017D8092037E009200FE809202FF1
:102F4000F009201FF809203F080AA020100AA0104D
:102F5000180AA030280AA028300AA018380AA03879
:102F6000480AA024500AA014580AA034600AA00CF1
:102F7000680AA02C700AA01C780AA03C880AA0222B
:102F8000900AA012980AA032A80AA02AB00AA01A91
:102F9000B80AA03AC80AA026D00AA016D80AA036B5
:102FA000E00AA00EE80AA02EF00AA01EF80AA03E31
:102FB000080BA021100BA011180BA031280BA02981
:102FC000300BA019380BA039480BA025500BA015C9
:102FD000580BA035600BA00D680BA02D700BA01D29
:102FE000780BA03D880BA023900BA013980BA03367
:102FF000A80BA02BB00BA01BB80BA03BC80BA027A5
:10300000D00BA017D80BA037E00BA00FE80BA02F18
:10301000F00BA01FF80BA03F080C6020100C6010F4
:10302000180C6030280C6028300C6018380C6038A0
:10303000480C6024500C6014580C6034680C602CF0
:10304000700C601C780C603C880C6022900C601244
:10305000980C6032A80C602AB00C601AB80C603A68
:10306000C80C6026D00C6016D80C6036E00C600EE0
:10307000E80C602EF00C601EF80C603E080D60211C
:10308000100D6011180D6031280D6029300D601988
:10309000380D6039480D6025500D6015580D6035AC
:1030A000680D602D700D601D780D603D880D6023EA
:1030B000900D6013980D6033A80D602BB00D601B50
:1030C000B80D603BC80D6027D00D6017D80D603774
:1030D000E00D600FE80D602FF00D601FF80D603FF0
:1030E000080EE020100EE010180EE030280EE02848
:1030F000300EE018380EE038480EE024500EE01490
:10310000580EE034680EE02C700EE01C780EE03CA7
:10311000880EE022900EE012980EE032A80EE02A0F
:10312000B00EE01AB80EE03AC80EE026D00EE01657
:10313000D80EE036E80EE02EF00EE01EF80EE03E6F
:10314000080FE021100FE011180FE031280FE029DF
:10315000300FE019380FE039480FE025500FE01527
:10316000580FE035680FE02D700FE01D780FE03D3F
:10317000880FE023900FE013980FE033A80FE02BA7
:10318000B00FE01BB80FE03BC80FE027D00FE017EF
:10319000D80FE037E80FE02FF00FE01FF80FE03F07
:1031A0000810102018101030281010283010101897
:1031B00038101038481010245010101458101034C3
:1031C0006810102C7010101C7810103C8810102201
:1031D0009010101298101032A810102AB010101A67
:1031E000B810103AC8101026D0101016D81010368B
:1031F000E810102EF010101EF810103E08111021CB
:1032000018111031281110293011101938111039E6
:103210004811102550111015581110356811102D36
:103220007011101D7811103D88111023901110138A
:1032300098111033A811102BB011101BB811103BAE
:10324000C8111027D0111017D8111037E811102FFE
:10325000F011101FF811103F081290201812903032
:103260002812902830129018381290384812902462
:1032700050129014581290346812902C7012901CB6
:103280007812903C8812902298129032A812902ABC
:10329000B012901AB812903AC8129026D012901616
:1032A000D8129036E812902EF012901EF812903E2E
:1032B0000813902118139031281390293013901976
:1032C00038139039481390255013901558139035A2
:1032D0006813902D7013901D7813903D88139023E0
:1032E00098139033A813902BB013901BB813903BF6
:1032F000C8139027D0139017D8139037E813902F46
:10330000F013901FF813903F0814502018145030F9
:1033100028145028301450183814503848145024A9
:10332000581450346814502C7014501C7814503CAD
:103330008814502298145032A814502AB014501AED
:10334000B814503AC8145026D0145016D814503619
:10335000E814502EF014501EF814503E0815502159
:103360001815503128155029301550193815503975
:1033700048155025581550356815502D7015501D9D
:103380007815503D8815502398155033A815502BAB
:10339000B015501BB815503BC8155027D015501705
:1033A000D8155037E815502FF015501FF815503F1D
:1033B0000816D0201816D0302816D0283016D0186D
:1033C0003816D0384816D0245816D0346816D02C69
:1033D0007016D01C7816D03C8816D0229816D032A1
:1033E000A816D02AB016D01AB816D03AC816D026C9
:1033F000D816D036E816D02EF016D01EF816D03ECD
:103400000817D0211817D0312817D0293017D01914
:103410003817D0394817D0255817D0356817D02D10
:103420007017D01D7817D03D8817D0239817D03348
:10343000A817D02BB017D01BB817D03BC817D02770
:10344000D817D037E817D02FF017D01FF817D03F74
:10345000081830201818303028183028381830381C
:1034600048183024581830346818302C7018301C24
:103470007818303C8818302298183032A818302A32
:10348000B018301AB818303AC8183026D818303664
:10349000E818302EF018301EF818303E0819302188
:1034A0001819303128193029381930394819302580
:1034B000581930356819302D7019301D7819303D84
:1034C0008819302398193033A819302BB019301BC4
:1034D000B819303BC8193027D8193037E819302FC0
:1034E000F019301FF819303F081AB020181AB03000
:1034F000281AB028381AB038481AB024581AB034EC
:10350000681AB02C701AB01C781AB03C881AB02215
:10351000981AB032A81AB02AB81AB03AC81AB02607
:10352000D81AB036E81AB02EF01AB01EF81AB03E0B
:10353000081BB021181BB031281BB029381BB0392B
:10354000481BB025581BB035681BB02D701BB01D33
:10355000781BB03D881BB023981BB033A81BB02B41
:10356000B81BB03BC81BB027D81BB037E81BB02F27
:10357000F01BB01FF81BB03F081C7020181C7030E7
:10358000281C7028381C7038481C7024581C703453
:10359000681C702C781C703C881C7022981C70323F
:1035A000A81C702AB81C703AC81C7026D81C70362B
:1035B000E81C702EF01C701EF81C703E081D702157
:1035C000181D7031281D7029381D7039481D70254F
:1035D000581D7035681D702D781D703D881D702335
:1035E000981D7033A81D702BB81D703BC81D702727
:1035F000D81D7037E81D702FF01D701FF81D703F2B
:10360000081EF020181EF030281EF028381EF03852
:10361000481EF024581EF034681EF02C781EF03C32
:10362000881EF022981EF032A81EF02AB81EF03A2A
:10363000C81EF026D81EF036E81EF02EF81EF03E0A
:10364000081FF021181FF031281FF029381FF0390A
:10365000481FF025581FF035681FF02D781FF03DEA
:10366000881FF023981FF033A81FF02BB81FF03BE2
:10367000C81FF027D81FF037E81FF02FF81FF03FC2
:103680001820083028200828382008384820082426
:10369000582008346820082C7820083C882008220C
:1036A00098200832A820082AB820083AC8200826FE
:1036B000D8200836E820082EF820083E18210831C6
:1036C000282108293821083948210825582108359A
:1036D0006821082D7821083D882108239821083386
:1036E000A821082BB821083BC8210827D821083772
:1036F000E821082FF821083F18228830282288283E
:103700003822883848228824582288346822882C15
:103710007822883C98228832A822882AB822883ABF
:10372000C8228826D8228836E822882EF822883EA9
:103730001823883128238829382388394823882565
:10374000582388356823882D7823883D982388332B
:10375000A823882BB823883BC8238827D8238837F9
:10376000E823882FF823883F182448302824482845
:1037700038244838582448346824482C7824483C55
:1037800098244832A824482AB824483AC82448260D
:10379000D8244836E824482EF824483E18254831D5
:1037A0002825482938254839582548356825482D81
:1037B0007825483D98254833A825482BB825483B0F
:1037C000C8254827D8254837E825482FF825483FF9
:1037D0001826C8302826C8283826C8385826C8349D
:1037E0006826C82C7826C83C9826C832A826C82A3D
:1037F000B826C83AD826C836E826C82EF826C83EC5
:103800001827C8312827C8293827C8395827C83564
:103810006827C82D7827C83D9827C833A827C82B04
:10382000B827C83BD827C837E827C82FF827C83F8C
:103830001828283038282838582828346828282C70
:103840007828283C98282832A828282AB828283AF6
:10385000D8282836E828282EF828283E1829283184
:1038600038292839582928356829282D7829283DCC
:1038700098292833A829282BB829283BD829283764
:10388000E829282FF829283F182AA830382AA838EC
:10389000582AA834682AA82C782AA83C982AA83242
:1038A000B82AA83AD82AA836E82AA82EF82AA83E84
:1038B000182BA831382BA839582BA835682BA82DE0
:1038C000782BA83D982BA833B82BA83BD82BA8372A
:1038D000E82BA82FF82BA83F182C6830382C683814
:1038E000582C6834782C683C982C6832B82C683A8C
:1038F000D82C6836E82C682EF82C683E182D6831D4
:10390000382D6839582D6835782D683D982D6833E5
:10391000B82D683BD82D6837E82D682FF82D683F03
:10392000182EE830382EE838582EE834782EE83C47
:10393000982EE832B82EE83AD82EE836F82EE83E2F
:10394000182FE831382FE839582FE835782FE83D1F
:10395000982FE833B82FE83BD82FE837F82FE83F07
:1039600038301838583018347830183C98301832BD
:10397000B830183AD8301836F830183E383118397F
:10398000583118357831183D98311833B831183B13
:10399000D8311837F831183F3832983858329834BF
:1039A0007832983CB832983AD8329836F832983E05
:1039B00038339839583398357833983DB833983B35
:1039C000D8339837F833983F383458387834583CDF
:1039D000B834583AD8345836F834583E383558390F
:1039E0007835583DB835583BD8355837F835583FB5
:1039F0003836D8387836D83CB836D83AF836D83E43
:103A00003837D8397837D83DB837D83BF837D83F2A
:103A10007838383CB838383AF838383E7839383D54
:103A2000B839383BF839383F783AB83CF83AB83EBC
:103A3000783BB83DF83BB83FF83C783EF83D783FDE
:103A40000800004010000020180000602000001056
:103A5000280000503000003038000070400000089E
:103A60004800004850000028580000686000001816
:103A7000680000587000003878000078800000046A
:103A8000880000449000002498000064A000001406
:103A9000A8000054B0000034B8000074C000000C4E
:103AA000C800004CD000002CD800006CE000001CC6
:103AB000E800005CF000003CF800007C000100021F
:103AC00008010042100100221801006220010012CA
:103AD0002801005230010032380100724001000A12
:103AE0004801004A5001002A5801006A6001001A8A
:103AF0006801005A7001003A7801007A80010006DE
:103B0000880100469001002698010066A001001679
:103B1000A8010056B0010036B8010076C001000EC1
:103B2000C801004ED001002ED801006EE001001E39
:103B3000E801005EF001003EF801007E080200414D
:103B40001002002118020061200200112802005119
:103B50003002003138020071400200094802004979
:103B600050020029580200696002001968020059D9
:103B70007002003978020079800200058802004551
:103B80009002002598020065A0020015A8020055C9
:103B9000B0020035B8020075C002000DC802004D29
:103BA000D002002DD802006DE002001DE802005D89
:103BB000F002003DF802007D0803004310030023DB
:103BC000180300632003001328030053300300335D
:103BD000380300734003000B4803004B5003002BD5
:103BE0005803006B6003001B6803005B7003003B1D
:103BF0007803007B800300078803004790030027B9
:103C000098030067A0030017A8030057B00300370C
:103C1000B8030077C003000FC803004FD003002F84
:103C2000D803006FE003001FE803005FF003003FCC
:103C3000F803007F0804804010048020180480608E
:103C400020048010280480503004803038048070B4
:103C50004004800848048048500480285804806844
:103C60006004801868048058700480387804807874
:103C7000880480449004802498048064A004801404
:103C8000A8048054B0048034B8048074C004800C4C
:103C9000C804804CD004802CD804806CE004801CC4
:103CA000E804805CF004803CF804807C08058042D5
:103CB0001005802218058062200580122805805298
:103CC00030058032380580724005800A4805804AF8
:103CD0005005802A5805806A6005801A6805805A58
:103CE0007005803A7805807A8005800688058046D0
:103CF0009005802698058066A0058016A805805648
:103D0000B0058036B8058076C005800EC805804EA7
:103D1000D005802ED805806EE005801EE805805E07
:103D2000F005803EF805807E08068041100680215F
:103D300018068061200680112806805130068031E7
:103D4000380680714006800948068049500680295F
:103D500058068069600680196806805970068039A7
:103D600078068079880680459006802598068065CB
:103D7000A0068015A8068055B0068035B806807567
:103D8000C006800DC806804DD006802DD806806DF7
:103D9000E006801DE806805DF006803DF806807D27
:103DA00008078043100780231807806320078013CB
:103DB0002807805330078033380780734007800B13
:103DC0004807804B5007802B5807806B6007801B8B
:103DD0006807805B7007803B7807807B8807804797
:103DE0009007802798078067A0078017A80780574B
:103DF000B0078037B8078077C007800FC807804FAB
:103E0000D007802FD807806FE007801FE807805F0A
:103E1000F007803FF807807F0808404010084020E6
:103E200018084060200840102808405030084030F2
:103E300038084070480840485008402858084068F2
:103E40006008401868084058700840387808407882
:103E5000880840449008402498084064A008401412
:103E6000A8084054B0084034B8084074C008400C5A
:103E7000C808404CD008402CD808406CE008401CD2
:103E8000E808405CF008403CF808407C08094042E3
:103E900010094022180940622009401228094052A6
:103EA00030094032380940724009400A4809404A06
:103EB0005009402A5809406A6009401A6809405A66
:103EC0007009403A7809407A8809404690094026AE
:103ED00098094066A0094016A8094056B009403626
:103EE000B8094076C009400EC809404ED009402E9E
:103EF000D809406EE009401EE809405EF009403EE6
:103F0000F809407E080A4041100A4021180A406121
:103F1000200A4011280A4051300A4031380A4071C5
:103F2000480A4049500A4029580A4069600A401925
:103F3000680A4059700A4039780A4079880A404531
:103F4000900A4025980A4065A00A4015A80A4055E5
:103F5000B00A4035B80A4075C00A400DC80A404D45
:103F6000D00A402DD80A406DE00A401DE80A405DA5
:103F7000F00A403DF80A407D080B4043100B4023F7
:103F8000180B4063200B4013280B4053300B403379
:103F9000380B4073480B404B500B402B580B406B79
:103FA000600B401B680B405B700B403B780B407B09
:103FB000880B4047900B4027980B4067A00B401799
:103FC000A80B4057B00B4037B80B4077C00B400FE1
:103FD000C80B404FD00B402FD80B406FE00B401F59
:103FE000E80B405FF00B403FF80B407F080CC040EF
:103FF000100CC020180CC060200CC010280CC05041
:10400000300CC030380CC070480CC048500CC02870
:10401000580CC068600CC018680CC058700CC038D0
:10402000780CC078880CC044900CC024980CC064F4
:10403000A00CC014A80CC054B00CC034B80CC07490
:10404000C80CC04CD00CC02CD80CC06CE00CC01CF0
:10405000E80CC05CF00CC03CF80CC07C080DC04201
:10406000100DC022180DC062200DC012280DC052C4
:10407000300DC032380DC072480DC04A500DC02AF4
:10408000580DC06A600DC01A680DC05A700DC03A54
:10409000780DC07A880DC046900DC026980DC06678
:1040A000A00DC016A80DC056B00DC036B80DC07614
:1040B000C00DC00EC80DC04ED00DC02ED80DC06EA4
:1040C000E00DC01EE80DC05EF00DC03EF80DC07ED4
:1040D000080EC041100EC021180EC061200EC01184
:1040E000280EC051300EC031380EC071480EC04984
:1040F000500EC029580EC069600EC019680EC05914
:10410000700EC039780EC079880EC045900EC0255B
:10411000980EC065A00EC015A80EC055B00EC035D3
:10412000B80EC075C80EC04DD00EC02DD80EC06DD3
:10413000E00EC01DE80EC05DF00EC03DF80EC07D63
:10414000080FC043100FC023180FC063200FC01307
:10415000280FC053300FC033380FC073480FC04B07
:10416000500FC02B580FC06B600FC01B680FC05B97
:10417000700FC03B780FC07B880FC047900FC027DF
:10418000980FC067A00FC017A80FC057B00FC03757
:10419000B80FC077C80FC04FD00FC02FD80FC06F57
:1041A000E00FC01FE80FC05FF00FC03FF80FC07FE7
:1041B00008102040101020201810206028102050D7
:1041C000301020303810207048102048501020281F
:1041D000581020686010201868102058701020387F
:1041E00078102078881020449010202498102064A3
:1041F000A0102014A8102054B0102034B81020743F
:10420000C810204CD010202CD810206CE010201C9E
:10421000E810205CF010203CF810207C08112042AF
:104220001011202218112062201120122811205272
:1042300030112032381120724811204A5011202AA2
:104240005811206A6011201A6811205A7011203A02
:104250007811207A88112046901120269811206626
:10426000A0112016A8112056B0112036B8112076C2
:10427000C811204ED011202ED811206EE011201E22
:10428000E811205EF011203EF811207E0812204136
:1042900010122021181220612812205130122031D2
:1042A00038122071481220495012202958122069D2
:1042B0006012201968122059701220397812207962
:1042C000881220459012202598122065A0122015F2
:1042D000A8122055B0122035B8122075C812204DF2
:1042E000D012202DD812206DE012201DE812205D82
:1042F000F012203DF812207D0813204310132023D4
:1043000018132063281320533013203338132073DD
:104310004813204B5013202B5813206B6013201B85
:104320006813205B7013203B7813207B8813204791
:104330009013202798132067A0132017A813205745
:10434000B0132037B8132077C813204FD013202F75
:10435000D813206FE013201FE813205FF013203FD5
:10436000F813207F0814A0401014A0201814A06097
:104370002814A0503014A0303814A0704814A0485D
:104380005014A0285814A0686014A0186814A058ED
:104390007014A0387814A0788814A0449014A02435
:1043A0009814A064A814A054B014A034B814A07435
:1043B000C814A04CD014A02CD814A06CE014A01CDD
:1043C000E814A05CF014A03CF814A07C0815A042EE
:1043D0001015A0221815A0622815A0523015A03281
:1043E0003815A0724815A04A5015A02A5815A06A81
:1043F0006015A01A6815A05A7015A03A7815A07A11
:104400008815A0469015A0269815A066A015A016A0
:10441000A815A056B015A036B815A076C815A04EA0
:10442000D015A02ED815A06EE015A01EE815A05E30
:10443000F015A03EF815A07E0816A0411016A02188
:104440001816A0612816A0513016A0313816A07198
:104450004816A0495016A0295816A0696016A01940
:104460006816A0597016A0397816A0798816A0454C
:104470009016A0259816A065A816A055B016A035D0
:10448000B816A075C816A04DD016A02DD816A06DD0
:10449000E016A01DE816A05DF016A03DF816A07D60
:1044A0000817A0431017A0231817A0632817A053BC
:1044B0003017A0333817A0734817A04B5017A02B04
:1044C0005817A06B6017A01B6817A05B7017A03B64
:1044D0007817A07B8817A0479017A0279817A06788
:1044E000A817A057B017A037B817A077C817A04FC4
:1044F000D017A02FD817A06FE017A01FE817A05F54
:10450000F017A03FF817A07F08186040101860202F
:1045100018186060281860503018603038186070C3
:104520004818604850186028581860686818605823
:104530007018603878186078881860449018602483
:1045400098186064A8186054B0186034B818607483
:10455000C818604CD018602CD818606CE018601C2B
:10456000E818605CF018603CF818607C081960423C
:1045700010196022181960622819605230196032CF
:10458000381960724819604A5019602A5819606ACF
:104590006019601A6819605A7019603A7819607A5F
:1045A000881960469019602698196066A8196056A7
:1045B000B0196036B8196076C819604ED019602EEF
:1045C000D819606EE019601EE819605EF019603E4F
:1045D000F819607E081A6041101A6021181A60618B
:1045E000281A6051301A6031381A6071481A6049CF
:1045F000501A6029581A6069681A6059701A60392F
:10460000781A6079881A6045901A6025981A606552
:10461000A81A6055B01A6035B81A6075C81A604D8E
:10462000D01A602DD81A606DE01A601DE81A605D1E
:10463000F01A603DF81A607D081B6043101B602370
:10464000181B6063281B6053301B6033381B60737A
:10465000481B604B501B602B581B606B681B605BDA
:10466000701B603B781B607B881B6047901B60273A
:10467000981B6067A81B6057B01B6037B81B60773A
:10468000C81B604FD01B602FD81B606FE01B601FE2
:10469000E81B605FF01B603FF81B607F081CE04078
:1046A000101CE020181CE060281CE050301CE0309A
:1046B000381CE070481CE048501CE028581CE0689A
:1046C000681CE058701CE038781CE078881CE044D6
:1046D000901CE024981CE064A81CE054B01CE0345A
:1046E000B81CE074C81CE04CD01CE02CD81CE06C5A
:1046F000E81CE05CF01CE03CF81CE07C081DE0429B
:10470000101DE022181DE062281DE052301DE0322D
:10471000381DE072481DE04A501DE02A581DE06A2D
:10472000681DE05A701DE03A781DE07A881DE04669
:10473000901DE026981DE066A81DE056B01DE036ED
:10474000B81DE076C81DE04ED01DE02ED81DE06EED
:10475000E01DE01EE81DE05EF01DE03EF81DE07E7D
:10476000081EE041101EE021181EE061281EE051E5
:10477000301EE031381EE071481EE049501EE0292D
:10478000581EE069681EE059701EE039781EE07915
:10479000881EE045901EE025981EE065A81EE055A5
:1047A000B01EE035B81EE075C81EE04DD01EE02DED
:1047B000D81EE06DE81EE05DF01EE03DF81EE07DD5
:1047C000081FE043101FE023181FE063281FE05379
:1047D000301FE033381FE073481FE04B501FE02BC1
:1047E000581FE06B681FE05B701FE03B781FE07BA9
:1047F000881FE047901FE027981FE067A81FE05739
:10480000B01FE037B81FE077C81FE04FD01FE02F80
:10481000D81FE06FE81FE05FF01FE03FF81FE07F68
:104820000820104018201060282010503020103030
:104830003820107048201048502010285820106848
:104840006820105870201038782010788820104484
:104850009020102498201064A8201054B020103408
:10486000B8201074C820104CD020102CD820106C08
:10487000E820105CF020103CF820107C0821104249
:1048800010211022182110622821105230211032DC
:10489000382110724821104A5021102A5821106ADC
:1048A0006821105A7021103A7821107A8821104618
:1048B0009021102698211066A8211056B02110369C
:1048C000B8211076C821104ED021102ED821106E9C
:1048D000E821105EF021103EF821107E08221041E0
:1048E0001822106128221051302210313822107104
:1048F0004822104950221029582210696822105964
:1049000070221039782210798822104590221025C3
:1049100098221065A8221055B0221035B8221075C3
:10492000C822104DD022102DD822106DE822105D23
:10493000F022103DF822107D082310431823106345
:104940002823105330231033382310734823104B7F
:104950005023102B5823106B6823105B7023103BDF
:104960007823107B88231047902310279823106703
:10497000A8231057B0231037B8231077C823104F3F
:10498000D023102FD823106FE823105FF023103F9F
:10499000F823107F08249040182490602824905019
:1049A0003024903038249070482490485024902827
:1049B000582490686824905870249038782490780F
:1049C0008824904498249064A8249054B02490346F
:1049D000B8249074C824904CD024902CD824906C87
:1049E000E824905CF024903CF824907C08259042C8
:1049F00018259062282590523025903238259072E3
:104A00004825904A5025902A5825906A6825905A42
:104A10007025903A7825907A8825904690259026A2
:104A200098259066A8259056B0259036B8259076A2
:104A3000C825904ED025902ED825906EE825905E02
:104A4000F025903EF825907E08269041182690612A
:104A5000282690513026903138269071482690496A
:104A600050269029582690696826905970269039CA
:104A7000782690798826904598269065A8269055A6
:104A8000B0269035B8269075C826904DD026902D2A
:104A9000D826906DE826905DF026903DF826907D12
:104AA0000827904318279063282790533027903386
:104AB000382790734827904B5027902B5827906B9E
:104AC0006827905B7027903B7827907B88279047DA
:104AD00098279067A8279057B0279037B8279077E6
:104AE000C827904FD027902FD827906FE827905F46
:104AF000F027903FF827907F0828504018285060F2
:104B000028285050302850303828507048285048B5
:104B1000582850686828505870285038782850789D
:104B20008828504498285064A8285054B0285034FD
:104B3000B8285074C828504CD028502CD828506C15
:104B4000E828505CF028503CF828507C0829504256
:104B50001829506228295052302950323829507271
:104B60004829504A5029502A5829506A6829505AD1
:104B70007029503A7829507A8829504698295066E9
:104B8000A8295056B0295036B8295076C829504E19
:104B9000D029502ED829506EE829505EF029503E79
:104BA000F829507E082A5041182A5061282A50516D
:104BB000302A5031382A5071482A5049582A5069B1
:104BC000682A5059702A5039782A5079882A5045D5
:104BD000982A5065A82A5055B02A5035B82A5075E1
:104BE000C82A504DD02A502DD82A506DE82A505D41
:104BF000F02A503DF82A507D082B5043182B506363
:104C0000282B5053302B5033382B5073482B504B9C
:104C1000582B506B682B505B702B503B782B507B84
:104C2000882B5047982B5067A82B5057B02B5037E4
:104C3000B82B5077C82B504FD02B502FD82B506FFC
:104C4000E82B505FF02B503FF82B507F082CD040C2
:104C5000182CD060282CD050302CD030382CD0706C
:104C6000482CD048582CD068682CD058702CD0389C
:104C7000782CD078882CD044982CD064A82CD05490
:104C8000B02CD034B82CD074C82CD04CD82CD06CCC
:104C9000E82CD05CF02CD03CF82CD07C082DD042F5
:104CA000182DD062282DD052302DD032382DD07210
:104CB000482DD04A582DD06A682DD05A702DD03A40
:104CC000782DD07A882DD046982DD066A82DD05634
:104CD000B02DD036B82DD076C82DD04ED02DD02EB8
:104CE000D82DD06EE82DD05EF02DD03EF82DD07EA0
:104CF000082ED041182ED061282ED051302ED03120
:104D0000382ED071482ED049582ED069682ED059EF
:104D1000702ED039782ED079882ED045982ED06537
:104D2000A82ED055B02ED035B82ED075C82ED04D67
:104D3000D82ED06DE82ED05DF02ED03DF82ED07D4F
:104D4000082FD043182FD063282FD053302FD033C3
:104D5000382FD073482FD04B582FD06B682FD05B93
:104D6000702FD03B782FD07B882FD047982FD067DB
:104D7000A82FD057B02FD037B82FD077C82FD04F0B
:104D8000D82FD06FE82FD05FF02FD03FF82FD07FF3
:104D900008303040183030602830305038303070B3
:104DA00048303048583030686830305870303038CB
:104DB000783030788830304498303064A8303054BF
:104DC000B0303034B8303074C830304CD830306CFB
:104DD000E830305CF030303CF830307C0831304224
:104DE000183130622831305230313032383130723F
:104DF0004831304A5831306A6831305A7031303A6F
:104E00007831307A8831304698313066A831305662
:104E1000B0313036B8313076C831304ED831306E9E
:104E2000E831305EF031303EF831307E08323041CA
:104E300018323061283230513832307148323049BE
:104E400058323069683230597032303978323079BE
:104E50008832304598323065A8323055B03230351E
:104E6000B8323075C832304DD832306DE832305DEE
:104E7000F032303DF832307D083330431833306340
:104E800028333053383330734833304B5833306B1A
:104E90006833305B7033303B7833307B8833304756
:104EA00098333067A8333057B0333037B833307762
:104EB000C833304FD833306FE833305FF033303F92
:104EC000F833307F0834B0401834B0602834B05024
:104ED0003834B0704834B0485834B0686834B0588A
:104EE0007034B0387834B0788834B0449834B064D2
:104EF000A834B054B834B074C834B04CD834B06CA2
:104F0000E834B05CF034B03CF834B07C0835B042E2
:104F10001835B0622835B0523835B0724835B04ACD
:104F20005835B06A6835B05A7035B03A7835B07ACD
:104F30008835B0469835B066A835B056B035B0362D
:104F4000B835B076C835B04ED835B06EE835B05EFD
:104F5000F035B03EF835B07E0836B0411836B06155
:104F60002836B0513836B0714836B0495836B06935
:104F70006836B0597036B0397836B0798836B04571
:104F80009836B065A836B055B836B075C836B04D4D
:104F9000D836B06DE836B05DF036B03DF836B07D4D
:104FA0000837B0431837B0632837B0533837B07379
:104FB0004837B04B5837B06B6837B05B7037B03B91
:104FC0007837B07B8837B0479837B067A837B05785
:104FD000B837B077C837B04FD837B06FE837B05F61
:104FE000F037B03FF837B07F08387040183870603D
:104FF00028387050383870704838704858387068A1
:105000006838705878387078883870449838706488
:10501000A8387054B8387074C838704CD838706C70
:10502000E838705CF038703CF838707C08397042B1
:105030001839706228397052383970724839704A9C
:105040005839706A6839705A7039703A7839707A9C
:105050008839704698397066A8397056B8397076B4
:10506000C839704ED839706EE839705EF039703ECC
:10507000F839707E083A7041183A7061283A7051D8
:10508000383A7071483A7049583A7069683A7059BC
:10509000783A7079883A7045983A7065A83A7055B0
:1050A000B83A7075C83A704DD83A706DE83A705D8C
:1050B000F03A703DF83A707D083B7043183B7063DE
:1050C000283B7053383B7073483B704B583B706BB8
:1050D000683B705B783B707B883B7047983B7067A0
:1050E000A83B7057B83B7077C83B704FD83B706F88
:1050F000E83B705FF03B703FF83B707F083CF0404E
:10510000183CF060283CF050383CF070483CF048C7
:10511000583CF068683CF058783CF078883CF044A3
:10512000983CF064A83CF054B83CF074C83CF04C97
:10513000D83CF06CE83CF05CF83CF07C083DF04278
:10514000183DF062283DF052383DF072483DF04A7B
:10515000583DF06A683DF05A783DF07A883DF04657
:10516000983DF066A83DF056B83DF076C83DF04E4B
:10517000D83DF06EE83DF05EF03DF03EF83DF07E4B
:10518000083EF041183EF061283EF051383EF07183
:10519000483EF049583EF069683EF059783EF07953
:1051A000883EF045983EF065A83EF055B83EF07553
:1051B000C83EF04DD83EF06DE83EF05DF83EF07D23
:1051C000083FF043183FF063283FF053383FF07337
:1051D000483FF04B583FF06B683FF05B783FF07B07
:1051E000883FF047983FF067A83FF057B83FF07707
:1051F000C83FF04FD83FF06FE83FF05FF83FF07FD7
:105200001840086028400850384008704840084856
:105210005840086868400858784008788840084432
:1052200098400864A8400854B8400874C840084C26
:10523000D840086CE840085CF840087C0841084207
:105240001841086228410852384108724841084A0A
:105250005841086A6841085A7841087A88410846E6
:1052600098410866A8410856B8410876C841084EDA
:10527000D841086EE841085EF841087E184208618E
:105280002842085138420871484208495842086982
:10529000684208597842087988420845984208656A
:1052A000A8420855B8420875C842084DD842086D52
:1052B000E842085DF842087D184308632843085314
:1052C000384308734843084B5843086B6843085BEE
:1052D0007843087B8843084798430867A8430857E2
:1052E000B8430877C843084FD843086FE843085FBE
:1052F000F843087F184488602844885038448870F0
:10530000484488485844886868448858784488786D
:1053100098448864A8448854B8448874C844884C25
:10532000D844886CE844885CF844887C18458862D6
:1053300028458852384588724845884A5845886AC1
:105340006845885A7845887A8845884698458866A9
:10535000A8458856B8458876C845884ED845886E91
:10536000E845885EF845887E184688612846885159
:105370003846887148468849584688696846885939
:105380007846887998468865A8468855B8468875CD
:10539000C846884DD846886DE846885DF846887DC1
:1053A0001847886328478853384788734847884B8D
:1053B0005847886B6847885B7847887B9847886739
:1053C000A8478857B8478877C847884FD847886F15
:1053D000E847885FF847887F184848602848485061
:1053E0003848487058484868684848587848487865
:1053F00098484864A8484854B8484874C848484C35
:10540000D848486CE848485CF848487C18494862E5
:1054100028494852384948724849484A5849486AD0
:105420006849485A7849487A98494866A849485688
:10543000B8494876C849484ED849486EE849485E58
:10544000F849487E184A4861284A4851384A487104
:10545000584A4869684A4859784A4879984A486594
:10546000A84A4855B84A4875C84A484DD84A486D70
:10547000E84A485DF84A487D184B4863284B485332
:10548000384B4873584B486B684B485B784B487BAC
:10549000984B4867A84B4857B84B4877C84B484F7C
:1054A000D84B486FE84B485FF84B487F184CC860B2
:1054B000284CC850384CC870584CC868684CC858FC
:1054C000784CC878984CC864A84CC854B84CC87478
:1054D000D84CC86CE84CC85CF84CC87C184DC86205
:1054E000284DC852384DC872584DC86A684DC85AC0
:1054F000784DC87A984DC866A84DC856B84DC8763C
:10550000C84DC84ED84DC86EE84DC85EF84DC87E2F
:10551000184EC861284EC851384EC871584EC869D7
:10552000684EC859784EC879984EC865A84EC85577
:10553000B84EC875D84EC86DE84EC85DF84EC87DE7
:10554000184FC863284FC853384FC873584FC86B9B
:10555000684FC85B784FC87B984FC867A84FC8573B
:10556000B84FC877D84FC86FE84FC85FF84FC87FAB
:1055700018502860385028705850286868502858AB
:105580007850287898502864A8502854B850287427
:10559000D850286CE850285CF850287C18512862B4
:1055A00028512852385128725851286A6851285A6F
:1055B0007851287A98512866A8512856B8512876EB
:1055C000D851286EE851285EF851287E185228617B
:1055D00038522871585228696852285978522879C7
:1055E00098522865A8522855B8522875D852286D67
:1055F000E852285DF852287D1853286338532873E1
:105600005853286B6853285B7853287B9853286736
:10561000A8532857B8532877D853286FE853285FE2
:10562000F853287F1854A8603854A8705854A868B4
:105630006854A8587854A8789854A864B854A874A2
:10564000D854A86CE854A85CF854A87C1855A862F3
:105650003855A8725855A86A6855A85A7855A87A36
:105660009855A866A855A856B855A876D855A86ED6
:10567000E855A85EF855A87E1856A8613856A87156
:105680005856A8696856A8597856A8799856A865B2
:10569000B856A875D856A86DE856A85DF856A87DE6
:1056A0001857A8633857A8735857A86B6857A85B52
:1056B0007857A87B9857A867B857A877D857A86F86
:1056C000E857A85FF857A87F18586860385868707E
:1056D000585868687858687898586864B8586874F2
:1056E000D858686CE858685CF858687C1859686243
:1056F000385968725859686A6859685A7859687A86
:1057000098596866B8596876D859686EE859685EDD
:10571000F859687E185A6861385A6871585A686929
:10572000785A6879985A6865B85A6875D85A686D11
:10573000E85A685DF85A687D185B6863385B68737F
:10574000585B686B785B687B985B6867B85B687769
:10575000D85B686FE85B685FF85B687F185CE8603F
:10576000385CE870585CE868785CE878985CE864D5
:10577000B85CE874D85CE86CF85CE87C185DE862BA
:10578000385DE872585DE86A785DE87A985DE866A9
:10579000B85DE876D85DE86EE85DE85EF85DE87EC5
:1057A000185EE861385EE871585EE869785EE8790D
:1057B000985EE865B85EE875D85EE86DF85EE87DED
:1057C000185FE863385FE873585FE86B785FE87BE1
:1057D000985FE867B85FE877D85FE86FF85FE87FC1
:1057E0003860187058601868786018789860186485
:1057F000B8601874D860186CF860187C186118626A
:10580000386118725861186A7861187A9861186658
:10581000B8611876D861186EF861187E3862187110
:10582000586218697862187998621865B8621875B4
:10583000D862186DF862187D386318735863186B56
:105840007863187B98631867B8631877D863186F04
:10585000F863187F3864987058649868786498780A
:10586000B8649874D864986CF864987C38659872B9
:105870005865986A7865987A98659866B865987654
:10588000D865986EF865987E3866987158669869FC
:1058900078669879B8669875D866986DF866987D38
:1058A000386798735867986B7867987BB86798776C
:1058B000D867986FF867987F386858707868587814
:1058C000B8685874D868586CF868587C3869587249
:1058D0005869586A7869587AB8695876D869586E9C
:1058E000F869587E386A5871786A5879B86A587574
:1058F000D86A586DF86A587D386B5873786B587B46
:10590000B86B5877D86B586FF86B587F386CD87075
:10591000786CD878B86CD874F86CD87C386DD8723C
:10592000786DD87AB86DD876D86DD86EF86DD87E87
:10593000386ED871786ED879B86ED875F86ED87D13
:10594000386FD873786FD87BB86FD877F86FD87FF7
:1059500078703878B8703874F870387C387138726C
:105960007871387AB8713876F871387E787238790B
:10597000B8723875F872387D7873387BB8733877B9
:10598000F873387F7874B878F874B87C7875B87A1A
:10599000B875B876F875B87E7876B879F876B87D47
:1059A0007877B87BF877B87FF878787C7879787AE8
:1059B000F879787EF87A787DF87B787FF87DF87EC4
:1059C0000800001010000008180000182000000453
:1059D000280000143000000C3800001C40000002B9
:1059E000480000125000000A5800001A600000062B
:1059F000680000167000000E7800001E8000000194
:105A0000880000119000000998000019A00000050E
:105A1000A8000015B000000DB800001DC000000374
:105A2000C8000013D000000BD800001BE0000007E6
:105A3000E8000017F000000FF800001F08018010B8
:105A400010018008180180182001800428018014AA
:105A50003001800C3801801C400180024801801216
:105A60005001800A5801801A600180066801801682
:105A70007001800E7801801E8801801190018009DC
:105A800098018019A0018005A8018015B001800D42
:105A9000B801801DC0018003C8018013D001800BB4
:105AA000D801801BE0018007E8018017F001800F1A
:105AB000F801801F08024010100240081802401828
:105AC00020024004280240143002400C3802401CDE
:105AD000480240125002400A5802401A6002400632
